{
  "_format": "hh-sol-artifact-1",
  "contractName": "EchoPayToken",
  "sourceName": "contracts/simpleToken.sol",
  "abi": [
    {
      "inputs": [
        {
          "internalType": "uint256",
          "name": "initialSupply",
          "type": "uint256"
        }
      ],
      "stateMutability": "nonpayable",
      "type": "constructor"
    },
    {
      "inputs": [
        {
          "internalType": "address",
          "name": "spender",
          "type": "address"
        },
        {
          "internalType": "uint256",
          "name": "allowance",
          "type": "uint256"
        },
        {
          "internalType": "uint256",
          "name": "needed",
          "type": "uint256"
        }
      ],
      "name": "ERC20InsufficientAllowance",
      "type": "error"
    },
    {
      "inputs": [
        {
          "internalType": "address",
          "name": "sender",
          "type": "address"
        },
        {
          "internalType": "uint256",
          "name": "balance",
          "type": "uint256"
        },
        {
          "internalType": "uint256",
          "name": "needed",
          "type": "uint256"
        }
      ],
      "name": "ERC20InsufficientBalance",
      "type": "error"
    },
    {
      "inputs": [
        {
          "internalType": "address",
          "name": "approver",
          "type": "address"
        }
      ],
      "name": "ERC20InvalidApprover",
      "type": "error"
    },
    {
      "inputs": [
        {
          "internalType": "address",
          "name": "receiver",
          "type": "address"
        }
      ],
      "name": "ERC20InvalidReceiver",
      "type": "error"
    },
    {
      "inputs": [
        {
          "internalType": "address",
          "name": "sender",
          "type": "address"
        }
      ],
      "name": "ERC20InvalidSender",
      "type": "error"
    },
    {
      "inputs": [
        {
          "internalType": "address",
          "name": "spender",
          "type": "address"
        }
      ],
      "name": "ERC20InvalidSpender",
      "type": "error"
    },
    {
      "inputs": [
        {
          "internalType": "address",
          "name": "owner",
          "type": "address"
        }
      ],
      "name": "OwnableInvalidOwner",
      "type": "error"
    },
    {
      "inputs": [
        {
          "internalType": "address",
          "name": "account",
          "type": "address"
        }
      ],
      "name": "OwnableUnauthorizedAccount",
      "type": "error"
    },
    {
      "anonymous": false,
      "inputs": [
        {
          "indexed": true,
          "internalType": "address",
          "name": "owner",
          "type": "address"
        },
        {
          "indexed": true,
          "internalType": "address",
          "name": "spender",
          "type": "address"
        },
        {
          "indexed": false,
          "internalType": "uint256",
          "name": "value",
          "type": "uint256"
        }
      ],
      "name": "Approval",
      "type": "event"
    },
    {
      "anonymous": false,
      "inputs": [
        {
          "indexed": true,
          "internalType": "address",
          "name": "previousOwner",
          "type": "address"
        },
        {
          "indexed": true,
          "internalType": "address",
          "name": "newOwner",
          "type": "address"
        }
      ],
      "name": "OwnershipTransferred",
      "type": "event"
    },
    {
      "anonymous": false,
      "inputs": [
        {
          "indexed": true,
          "internalType": "address",
          "name": "payer",
          "type": "address"
        }
      ],
      "name": "PayerAuthorized",
      "type": "event"
    },
    {
      "anonymous": false,
      "inputs": [
        {
          "indexed": true,
          "internalType": "address",
          "name": "payer",
          "type": "address"
        }
      ],
      "name": "PayerRevoked",
      "type": "event"
    },
    {
      "anonymous": false,
      "inputs": [
        {
          "indexed": true,
          "internalType": "address",
          "name": "from",
          "type": "address"
        },
        {
          "indexed": true,
          "internalType": "address",
          "name": "to",
          "type": "address"
        },
        {
          "indexed": false,
          "internalType": "uint256",
          "name": "value",
          "type": "uint256"
        }
      ],
      "name": "Transfer",
      "type": "event"
    },
    {
      "inputs": [
        {
          "internalType": "address",
          "name": "owner",
          "type": "address"
        },
        {
          "internalType": "address",
          "name": "spender",
          "type": "address"
        }
      ],
      "name": "allowance",
      "outputs": [
        {
          "internalType": "uint256",
          "name": "",
          "type": "uint256"
        }
      ],
      "stateMutability": "view",
      "type": "function"
    },
    {
      "inputs": [
        {
          "internalType": "address",
          "name": "spender",
          "type": "address"
        },
        {
          "internalType": "uint256",
          "name": "value",
          "type": "uint256"
        }
      ],
      "name": "approve",
      "outputs": [
        {
          "internalType": "bool",
          "name": "",
          "type": "bool"
        }
      ],
      "stateMutability": "nonpayable",
      "type": "function"
    },
    {
      "inputs": [
        {
          "internalType": "address",
          "name": "payer",
          "type": "address"
        }
      ],
      "name": "authorizePayer",
      "outputs": [],
      "stateMutability": "nonpayable",
      "type": "function"
    },
    {
      "inputs": [
        {
          "internalType": "address",
          "name": "",
          "type": "address"
        }
      ],
      "name": "authorizedPayers",
      "outputs": [
        {
          "internalType": "bool",
          "name": "",
          "type": "bool"
        }
      ],
      "stateMutability": "view",
      "type": "function"
    },
    {
      "inputs": [
        {
          "internalType": "address",
          "name": "account",
          "type": "address"
        }
      ],
      "name": "balanceOf",
      "outputs": [
        {
          "internalType": "uint256",
          "name": "",
          "type": "uint256"
        }
      ],
      "stateMutability": "view",
      "type": "function"
    },
    {
      "inputs": [],
      "name": "decimals",
      "outputs": [
        {
          "internalType": "uint8",
          "name": "",
          "type": "uint8"
        }
      ],
      "stateMutability": "view",
      "type": "function"
    },
    {
      "inputs": [
        {
          "internalType": "address",
          "name": "to",
          "type": "address"
        },
        {
          "internalType": "uint256",
          "name": "amount",
          "type": "uint256"
        }
      ],
      "name": "mint",
      "outputs": [],
      "stateMutability": "nonpayable",
      "type": "function"
    },
    {
      "inputs": [],
      "name": "name",
      "outputs": [
        {
          "internalType": "string",
          "name": "",
          "type": "string"
        }
      ],
      "stateMutability": "view",
      "type": "function"
    },
    {
      "inputs": [],
      "name": "owner",
      "outputs": [
        {
          "internalType": "address",
          "name": "",
          "type": "address"
        }
      ],
      "stateMutability": "view",
      "type": "function"
    },
    {
      "inputs": [],
      "name": "renounceOwnership",
      "outputs": [],
      "stateMutability": "nonpayable",
      "type": "function"
    },
    {
      "inputs": [
        {
          "internalType": "address",
          "name": "payer",
          "type": "address"
        }
      ],
      "name": "revokePayer",
      "outputs": [],
      "stateMutability": "nonpayable",
      "type": "function"
    },
    {
      "inputs": [],
      "name": "symbol",
      "outputs": [
        {
          "internalType": "string",
          "name": "",
          "type": "string"
        }
      ],
      "stateMutability": "view",
      "type": "function"
    },
    {
      "inputs": [],
      "name": "totalSupply",
      "outputs": [
        {
          "internalType": "uint256",
          "name": "",
          "type": "uint256"
        }
      ],
      "stateMutability": "view",
      "type": "function"
    },
    {
      "inputs": [
        {
          "internalType": "address",
          "name": "to",
          "type": "address"
        },
        {
          "internalType": "uint256",
          "name": "value",
          "type": "uint256"
        }
      ],
      "name": "transfer",
      "outputs": [
        {
          "internalType": "bool",
          "name": "",
          "type": "bool"
        }
      ],
      "stateMutability": "nonpayable",
      "type": "function"
    },
    {
      "inputs": [
        {
          "internalType": "address",
          "name": "from",
          "type": "address"
        },
        {
          "internalType": "address",
          "name": "to",
          "type": "address"
        },
        {
          "internalType": "uint256",
          "name": "value",
          "type": "uint256"
        }
      ],
      "name": "transferFrom",
      "outputs": [
        {
          "internalType": "bool",
          "name": "",
          "type": "bool"
        }
      ],
      "stateMutability": "nonpayable",
      "type": "function"
    },
    {
      "inputs": [
        {
          "internalType": "address",
          "name": "newOwner",
          "type": "address"
        }
      ],
      "name": "transferOwnership",
      "outputs": [],
      "stateMutability": "nonpayable",
      "type": "function"
    },
    {
      "inputs": [
        {
          "internalType": "address",
          "name": "to",
          "type": "address"
        },
        {
          "internalType": "uint256",
          "name": "amount",
          "type": "uint256"
        }
      ],
      "name": "voiceTransfer",
      "outputs": [],
      "stateMutability": "nonpayable",
      "type": "function"
    }
  ],
  "bytecode": "0x60806040523480156200001157600080fd5b50604051620020553803806200205583398181016040528101906200003791906200052d565b336040518060400160405280600d81526020017f4563686f50617920546f6b656e000000000000000000000000000000000000008152506040518060400160405280600481526020017f45504159000000000000000000000000000000000000000000000000000000008152508160039081620000b59190620007cf565b508060049081620000c79190620007cf565b505050600073ffffffffffffffffffffffffffffffffffffffff168173ffffffffffffffffffffffffffffffffffffffff16036200013f5760006040517f1e4fbdf7000000000000000000000000000000000000000000000000000000008152600401620001369190620008fb565b60405180910390fd5b62000150816200016a60201b60201c565b506200016333826200023060201b60201c565b50620009ed565b6000600560009054906101000a900473ffffffffffffffffffffffffffffffffffffffff16905081600560006101000a81548173ffffffffffffffffffffffffffffffffffffffff021916908373ffffffffffffffffffffffffffffffffffffffff1602179055508173ffffffffffffffffffffffffffffffffffffffff168173ffffffffffffffffffffffffffffffffffffffff167f8be0079c531659141344cd1fd0a4f28419497f9722a3daafe3b4186f6b6457e060405160405180910390a35050565b600073ffffffffffffffffffffffffffffffffffffffff168273ffffffffffffffffffffffffffffffffffffffff1603620002a55760006040517fec442f050000000000000000000000000000000000000000000000000000000081526004016200029c9190620008fb565b60405180910390fd5b620002b960008383620002bd60201b60201c565b5050565b600073ffffffffffffffffffffffffffffffffffffffff168373ffffffffffffffffffffffffffffffffffffffff16036200031357806002600082825462000306919062000947565b92505081905550620003e9565b60008060008573ffffffffffffffffffffffffffffffffffffffff1673ffffffffffffffffffffffffffffffffffffffff16815260200190815260200160002054905081811015620003a2578381836040517fe450d38c000000000000000000000000000000000000000000000000000000008152600401620003999392919062000993565b60405180910390fd5b8181036000808673ffffffffffffffffffffffffffffffffffffffff1673ffffffffffffffffffffffffffffffffffffffff16815260200190815260200160002081905550505b600073ffffffffffffffffffffffffffffffffffffffff168273ffffffffffffffffffffffffffffffffffffffff160362000434578060026000828254039250508190555062000481565b806000808473ffffffffffffffffffffffffffffffffffffffff1673ffffffffffffffffffffffffffffffffffffffff168152602001908152602001600020600082825401925050819055505b8173ffffffffffffffffffffffffffffffffffffffff168373ffffffffffffffffffffffffffffffffffffffff167fddf252ad1be2c89b69c2b068fc378daa952ba7f163c4a11628f55a4df523b3ef83604051620004e09190620009d0565b60405180910390a3505050565b600080fd5b6000819050919050565b6200050781620004f2565b81146200051357600080fd5b50565b6000815190506200052781620004fc565b92915050565b600060208284031215620005465762000545620004ed565b5b6000620005568482850162000516565b91505092915050565b600081519050919050565b7f4e487b7100000000000000000000000000000000000000000000000000000000600052604160045260246000fd5b7f4e487b7100000000000000000000000000000000000000000000000000000000600052602260045260246000fd5b60006002820490506001821680620005e157607f821691505b602082108103620005f757620005f662000599565b5b50919050565b60008190508160005260206000209050919050565b60006020601f8301049050919050565b600082821b905092915050565b600060088302620006617fffffffffffffffffffffffffffffffffffffffffffffffffffffffffffffffff8262000622565b6200066d868362000622565b95508019841693508086168417925050509392505050565b6000819050919050565b6000620006b0620006aa620006a484620004f2565b62000685565b620004f2565b9050919050565b6000819050919050565b620006cc836200068f565b620006e4620006db82620006b7565b8484546200062f565b825550505050565b600090565b620006fb620006ec565b62000708818484620006c1565b505050565b5b81811015620007305762000724600082620006f1565b6001810190506200070e565b5050565b601f8211156200077f576200074981620005fd565b620007548462000612565b8101602085101562000764578190505b6200077c620007738562000612565b8301826200070d565b50505b505050565b600082821c905092915050565b6000620007a46000198460080262000784565b1980831691505092915050565b6000620007bf838362000791565b9150826002028217905092915050565b620007da826200055f565b67ffffffffffffffff811115620007f657620007f56200056a565b5b620008028254620005c8565b6200080f82828562000734565b600060209050601f83116001811462000847576000841562000832578287015190505b6200083e8582620007b1565b865550620008ae565b601f1984166200085786620005fd565b60005b8281101562000881578489015182556001820191506020850194506020810190506200085a565b86831015620008a157848901516200089d601f89168262000791565b8355505b6001600288020188555050505b505050505050565b600073ffffffffffffffffffffffffffffffffffffffff82169050919050565b6000620008e382620008b6565b9050919050565b620008f581620008d6565b82525050565b6000602082019050620009126000830184620008ea565b92915050565b7f4e487b7100000000000000000000000000000000000000000000000000000000600052601160045260246000fd5b60006200095482620004f2565b91506200096183620004f2565b92508282019050808211156200097c576200097b62000918565b5b92915050565b6200098d81620004f2565b82525050565b6000606082019050620009aa6000830186620008ea565b620009b9602083018562000982565b620009c8604083018462000982565b949350505050565b6000602082019050620009e7600083018462000982565b92915050565b61165880620009fd6000396000f3fe608060405234801561001057600080fd5b506004361061010b5760003560e01c806370a08231116100a2578063a9059cbb11610071578063a9059cbb14610294578063dd62ed3e146102c4578063f222381f146102f4578063f2fde38b14610310578063f993602a1461032c5761010b565b806370a082311461021e578063715018a61461024e5780638da5cb5b1461025857806395d89b41146102765761010b565b806323b872dd116100de57806323b872dd14610198578063313ce567146101c857806340c10f19146101e657806360c90030146102025761010b565b806306fdde0314610110578063095ea7b31461012e57806318160ddd1461015e578063216184a61461017c575b600080fd5b61011861035c565b6040516101259190611168565b60405180910390f35b61014860048036038101906101439190611223565b6103ee565b604051610155919061127e565b60405180910390f35b610166610411565b60405161017391906112a8565b60405180910390f35b610196600480360381019061019191906112c3565b61041b565b005b6101b260048036038101906101ad91906112f0565b6104c1565b6040516101bf919061127e565b60405180910390f35b6101d06104f0565b6040516101dd919061135f565b60405180910390f35b61020060048036038101906101fb9190611223565b6104f9565b005b61021c60048036038101906102179190611223565b61050f565b005b610238600480360381019061023391906112c3565b61065c565b60405161024591906112a8565b60405180910390f35b6102566106a4565b005b6102606106b8565b60405161026d9190611389565b60405180910390f35b61027e6106e2565b60405161028b9190611168565b60405180910390f35b6102ae60048036038101906102a99190611223565b610774565b6040516102bb919061127e565b60405180910390f35b6102de60048036038101906102d991906113a4565b610797565b6040516102eb91906112a8565b60405180910390f35b61030e600480360381019061030991906112c3565b61081e565b005b61032a600480360381019061032591906112c3565b6108c4565b005b610346600480360381019061034191906112c3565b61094a565b604051610353919061127e565b60405180910390f35b60606003805461036b90611413565b80601f016020809104026020016040519081016040528092919081815260200182805461039790611413565b80156103e45780601f106103b9576101008083540402835291602001916103e4565b820191906000526020600020905b8154815290600101906020018083116103c757829003601f168201915b5050505050905090565b6000806103f961096a565b9050610406818585610972565b600191505092915050565b6000600254905090565b610423610984565b6001600660008373ffffffffffffffffffffffffffffffffffffffff1673ffffffffffffffffffffffffffffffffffffffff16815260200190815260200160002060006101000a81548160ff0219169083151502179055508073ffffffffffffffffffffffffffffffffffffffff167fca0db358e410765910d7ecf90253bc9685fa8d9c8d136ab1a9d933186c74306560405160405180910390a250565b6000806104cc61096a565b90506104d9858285610a0b565b6104e4858585610aa0565b60019150509392505050565b60006012905090565b610501610984565b61050b8282610b94565b5050565b600660003373ffffffffffffffffffffffffffffffffffffffff1673ffffffffffffffffffffffffffffffffffffffff16815260200190815260200160002060009054906101000a900460ff1661059b576040517f08c379a000000000000000000000000000000000000000000000000000000000815260040161059290611490565b60405180910390fd5b600073ffffffffffffffffffffffffffffffffffffffff168273ffffffffffffffffffffffffffffffffffffffff160361060a576040517f08c379a0000000000000000000000000000000000000000000000000000000008152600401610601906114fc565b60405180910390fd5b6000811161064d576040517f08c379a000000000000000000000000000000000000000000000000000000000815260040161064490611568565b60405180910390fd5b610658338383610aa0565b5050565b60008060008373ffffffffffffffffffffffffffffffffffffffff1673ffffffffffffffffffffffffffffffffffffffff168152602001908152602001600020549050919050565b6106ac610984565b6106b66000610c16565b565b6000600560009054906101000a900473ffffffffffffffffffffffffffffffffffffffff16905090565b6060600480546106f190611413565b80601f016020809104026020016040519081016040528092919081815260200182805461071d90611413565b801561076a5780601f1061073f5761010080835404028352916020019161076a565b820191906000526020600020905b81548152906001019060200180831161074d57829003601f168201915b5050505050905090565b60008061077f61096a565b905061078c818585610aa0565b600191505092915050565b6000600160008473ffffffffffffffffffffffffffffffffffffffff1673ffffffffffffffffffffffffffffffffffffffff16815260200190815260200160002060008373ffffffffffffffffffffffffffffffffffffffff1673ffffffffffffffffffffffffffffffffffffffff16815260200190815260200160002054905092915050565b610826610984565b6000600660008373ffffffffffffffffffffffffffffffffffffffff1673ffffffffffffffffffffffffffffffffffffffff16815260200190815260200160002060006101000a81548160ff0219169083151502179055508073ffffffffffffffffffffffffffffffffffffffff167f70f3858293435f5c9c8593d37b30aeedc8fdaedce5cf04faf67bdf470e8df66060405160405180910390a250565b6108cc610984565b600073ffffffffffffffffffffffffffffffffffffffff168173ffffffffffffffffffffffffffffffffffffffff160361093e5760006040517f1e4fbdf70000000000000000000000000000000000000000000000000000000081526004016109359190611389565b60405180910390fd5b61094781610c16565b50565b60066020528060005260406000206000915054906101000a900460ff1681565b600033905090565b61097f8383836001610cdc565b505050565b61098c61096a565b73ffffffffffffffffffffffffffffffffffffffff166109aa6106b8565b73ffffffffffffffffffffffffffffffffffffffff1614610a09576109cd61096a565b6040517f118cdaa7000000000000000000000000000000000000000000000000000000008152600401610a009190611389565b60405180910390fd5b565b6000610a178484610797565b90507fffffffffffffffffffffffffffffffffffffffffffffffffffffffffffffffff811015610a9a5781811015610a8a578281836040517ffb8f41b2000000000000000000000000000000000000000000000000000000008152600401610a8193929190611588565b60405180910390fd5b610a9984848484036000610cdc565b5b50505050565b600073ffffffffffffffffffffffffffffffffffffffff168373ffffffffffffffffffffffffffffffffffffffff1603610b125760006040517f96c6fd1e000000000000000000000000000000000000000000000000000000008152600401610b099190611389565b60405180910390fd5b600073ffffffffffffffffffffffffffffffffffffffff168273ffffffffffffffffffffffffffffffffffffffff1603610b845760006040517fec442f05000000000000000000000000000000000000000000000000000000008152600401610b7b9190611389565b60405180910390fd5b610b8f838383610eb3565b505050565b600073ffffffffffffffffffffffffffffffffffffffff168273ffffffffffffffffffffffffffffffffffffffff1603610c065760006040517fec442f05000000000000000000000000000000000000000000000000000000008152600401610bfd9190611389565b60405180910390fd5b610c1260008383610eb3565b5050565b6000600560009054906101000a900473ffffffffffffffffffffffffffffffffffffffff16905081600560006101000a81548173ffffffffffffffffffffffffffffffffffffffff021916908373ffffffffffffffffffffffffffffffffffffffff1602179055508173ffffffffffffffffffffffffffffffffffffffff168173ffffffffffffffffffffffffffffffffffffffff167f8be0079c531659141344cd1fd0a4f28419497f9722a3daafe3b4186f6b6457e060405160405180910390a35050565b600073ffffffffffffffffffffffffffffffffffffffff168473ffffffffffffffffffffffffffffffffffffffff1603610d4e5760006040517fe602df05000000000000000000000000000000000000000000000000000000008152600401610d459190611389565b60405180910390fd5b600073ffffffffffffffffffffffffffffffffffffffff168373ffffffffffffffffffffffffffffffffffffffff1603610dc05760006040517f94280d62000000000000000000000000000000000000000000000000000000008152600401610db79190611389565b60405180910390fd5b81600160008673ffffffffffffffffffffffffffffffffffffffff1673ffffffffffffffffffffffffffffffffffffffff16815260200190815260200160002060008573ffffffffffffffffffffffffffffffffffffffff1673ffffffffffffffffffffffffffffffffffffffff168152602001908152602001600020819055508015610ead578273ffffffffffffffffffffffffffffffffffffffff168473ffffffffffffffffffffffffffffffffffffffff167f8c5be1e5ebec7d5bd14f71427d1e84f3dd0314c0f7b2291e5b200ac8c7c3b92584604051610ea491906112a8565b60405180910390a35b50505050565b600073ffffffffffffffffffffffffffffffffffffffff168373ffffffffffffffffffffffffffffffffffffffff1603610f05578060026000828254610ef991906115ee565b92505081905550610fd8565b60008060008573ffffffffffffffffffffffffffffffffffffffff1673ffffffffffffffffffffffffffffffffffffffff16815260200190815260200160002054905081811015610f91578381836040517fe450d38c000000000000000000000000000000000000000000000000000000008152600401610f8893929190611588565b60405180910390fd5b8181036000808673ffffffffffffffffffffffffffffffffffffffff1673ffffffffffffffffffffffffffffffffffffffff16815260200190815260200160002081905550505b600073ffffffffffffffffffffffffffffffffffffffff168273ffffffffffffffffffffffffffffffffffffffff1603611021578060026000828254039250508190555061106e565b806000808473ffffffffffffffffffffffffffffffffffffffff1673ffffffffffffffffffffffffffffffffffffffff168152602001908152602001600020600082825401925050819055505b8173ffffffffffffffffffffffffffffffffffffffff168373ffffffffffffffffffffffffffffffffffffffff167fddf252ad1be2c89b69c2b068fc378daa952ba7f163c4a11628f55a4df523b3ef836040516110cb91906112a8565b60405180910390a3505050565b600081519050919050565b600082825260208201905092915050565b60005b838110156111125780820151818401526020810190506110f7565b60008484015250505050565b6000601f19601f8301169050919050565b600061113a826110d8565b61114481856110e3565b93506111548185602086016110f4565b61115d8161111e565b840191505092915050565b60006020820190508181036000830152611182818461112f565b905092915050565b600080fd5b600073ffffffffffffffffffffffffffffffffffffffff82169050919050565b60006111ba8261118f565b9050919050565b6111ca816111af565b81146111d557600080fd5b50565b6000813590506111e7816111c1565b92915050565b6000819050919050565b611200816111ed565b811461120b57600080fd5b50565b60008135905061121d816111f7565b92915050565b6000806040838503121561123a5761123961118a565b5b6000611248858286016111d8565b92505060206112598582860161120e565b9150509250929050565b60008115159050919050565b61127881611263565b82525050565b6000602082019050611293600083018461126f565b92915050565b6112a2816111ed565b82525050565b60006020820190506112bd6000830184611299565b92915050565b6000602082840312156112d9576112d861118a565b5b60006112e7848285016111d8565b91505092915050565b6000806000606084860312156113095761130861118a565b5b6000611317868287016111d8565b9350506020611328868287016111d8565b92505060406113398682870161120e565b9150509250925092565b600060ff82169050919050565b61135981611343565b82525050565b60006020820190506113746000830184611350565b92915050565b611383816111af565b82525050565b600060208201905061139e600083018461137a565b92915050565b600080604083850312156113bb576113ba61118a565b5b60006113c9858286016111d8565b92505060206113da858286016111d8565b9150509250929050565b7f4e487b7100000000000000000000000000000000000000000000000000000000600052602260045260246000fd5b6000600282049050600182168061142b57607f821691505b60208210810361143e5761143d6113e4565b5b50919050565b7f4563686f5061793a20556e617574686f72697a65642070617965720000000000600082015250565b600061147a601b836110e3565b915061148582611444565b602082019050919050565b600060208201905081810360008301526114a98161146d565b9050919050565b7f4563686f5061793a20496e76616c696420726563697069656e74000000000000600082015250565b60006114e6601a836110e3565b91506114f1826114b0565b602082019050919050565b60006020820190508181036000830152611515816114d9565b9050919050565b7f4563686f5061793a20496e76616c696420616d6f756e74000000000000000000600082015250565b60006115526017836110e3565b915061155d8261151c565b602082019050919050565b6000602082019050818103600083015261158181611545565b9050919050565b600060608201905061159d600083018661137a565b6115aa6020830185611299565b6115b76040830184611299565b949350505050565b7f4e487b7100000000000000000000000000000000000000000000000000000000600052601160045260246000fd5b60006115f9826111ed565b9150611604836111ed565b925082820190508082111561161c5761161b6115bf565b5b9291505056fea26469706673582212209dbb8094195b44961ab164c330d1abb298a08cbb2770c63fbbf690ee42dfe97b64736f6c63430008140033",
  "linkReferences": {},
  "deployedLinkReferences": {}
}